{
  "_format": "hh-sol-artifact-1",
  "contractName": "CampaignFactory",
  "sourceName": "contracts/Campaign.sol",
  "abi": [
    {
      "anonymous": false,
      "inputs": [
        {
          "indexed": false,
          "internalType": "string",
          "name": "title",
          "type": "string"
        },
        {
          "indexed": false,
          "internalType": "uint256",
          "name": "requiredAmount",
          "type": "uint256"
        },
        {
          "indexed": true,
          "internalType": "address",
          "name": "owner",
          "type": "address"
        },
        {
          "indexed": false,
          "internalType": "address",
          "name": "campaignAddress",
          "type": "address"
        },
        {
          "indexed": false,
          "internalType": "string",
          "name": "imgURI",
          "type": "string"
        },
        {
          "indexed": true,
          "internalType": "uint256",
          "name": "timestamp",
          "type": "uint256"
        },
        {
          "indexed": true,
          "internalType": "string",
          "name": "category",
          "type": "string"
        }
      ],
      "name": "campaignCreated",
      "type": "event"
    },
    {
      "inputs": [
        {
          "internalType": "string",
          "name": "campaignTitle",
          "type": "string"
        },
        {
          "internalType": "uint256",
          "name": "requiredCampaignAmount",
          "type": "uint256"
        },
        {
          "internalType": "string",
          "name": "imgURI",
          "type": "string"
        },
        {
          "internalType": "string",
          "name": "category",
          "type": "string"
        },
        {
          "internalType": "string",
          "name": "storyURI",
          "type": "string"
        }
      ],
      "name": "createCampaign",
      "outputs": [],
      "stateMutability": "nonpayable",
      "type": "function"
    },
    {
      "inputs": [
        {
          "internalType": "uint256",
          "name": "",
          "type": "uint256"
        }
      ],
      "name": "deployedCampaigns",
      "outputs": [
        {
          "internalType": "address",
          "name": "",
          "type": "address"
        }
      ],
      "stateMutability": "view",
      "type": "function"
    }
  ],
  "bytecode": "0x608060405234801561001057600080fd5b506113c0806100206000396000f3fe60806040523480156200001157600080fd5b50600436106200003a5760003560e01c8063339d50a5146200003f578063c658857d1462000075575b600080fd5b6200005d600480360381019062000057919062000251565b62000095565b6040516200006c9190620002c8565b60405180910390f35b6200009360048036038101906200008d919062000447565b620000d5565b005b60008181548110620000a657600080fd5b906000526020600020016000915054906101000a900473ffffffffffffffffffffffffffffffffffffffff1681565b60008585858433604051620000ea90620001f4565b620000fa959493929190620005ef565b604051809103906000f08015801562000117573d6000803e3d6000fd5b5090506000819080600181540180825580915050600190039060005260206000200160009091909190916101000a81548173ffffffffffffffffffffffffffffffffffffffff021916908373ffffffffffffffffffffffffffffffffffffffff160217905550826040516200018d9190620006a3565b6040518091039020423373ffffffffffffffffffffffffffffffffffffffff167ff932d905365211c7f19fda44bcb55b1adbe63365f7cdae1c35ddcb3e38ed1d468989868a604051620001e49493929190620006bc565b60405180910390a4505050505050565b610c73806200071883390190565b6000604051905090565b600080fd5b600080fd5b6000819050919050565b6200022b8162000216565b81146200023757600080fd5b50565b6000813590506200024b8162000220565b92915050565b6000602082840312156200026a57620002696200020c565b5b60006200027a848285016200023a565b91505092915050565b600073ffffffffffffffffffffffffffffffffffffffff82169050919050565b6000620002b08262000283565b9050919050565b620002c281620002a3565b82525050565b6000602082019050620002df6000830184620002b7565b92915050565b600080fd5b600080fd5b6000601f19601f8301169050919050565b7f4e487b7100000000000000000000000000000000000000000000000000000000600052604160045260246000fd5b6200033a82620002ef565b810181811067ffffffffffffffff821117156200035c576200035b62000300565b5b80604052505050565b60006200037162000202565b90506200037f82826200032f565b919050565b600067ffffffffffffffff821115620003a257620003a162000300565b5b620003ad82620002ef565b9050602081019050919050565b82818337600083830152505050565b6000620003e0620003da8462000384565b62000365565b905082815260208101848484011115620003ff57620003fe620002ea565b5b6200040c848285620003ba565b509392505050565b600082601f8301126200042c576200042b620002e5565b5b81356200043e848260208601620003c9565b91505092915050565b600080600080600060a086880312156200046657620004656200020c565b5b600086013567ffffffffffffffff81111562000487576200048662000211565b5b620004958882890162000414565b9550506020620004a8888289016200023a565b945050604086013567ffffffffffffffff811115620004cc57620004cb62000211565b5b620004da8882890162000414565b935050606086013567ffffffffffffffff811115620004fe57620004fd62000211565b5b6200050c8882890162000414565b925050608086013567ffffffffffffffff81111562000530576200052f62000211565b5b6200053e8882890162000414565b9150509295509295909350565b600081519050919050565b600082825260208201905092915050565b60005b83811015620005875780820151818401526020810190506200056a565b8381111562000597576000848401525b50505050565b6000620005aa826200054b565b620005b6818562000556565b9350620005c881856020860162000567565b620005d381620002ef565b840191505092915050565b620005e98162000216565b82525050565b600060a08201905081810360008301526200060b81886200059d565b90506200061c6020830187620005de565b81810360408301526200063081866200059d565b905081810360608301526200064681856200059d565b9050620006576080830184620002b7565b9695505050505050565b600081905092915050565b600062000679826200054b565b62000685818562000661565b93506200069781856020860162000567565b80840191505092915050565b6000620006b182846200066c565b915081905092915050565b60006080820190508181036000830152620006d881876200059d565b9050620006e96020830186620005de565b620006f86040830185620002b7565b81810360608301526200070c81846200059d565b90509594505050505056fe60806040523480156200001157600080fd5b5060405162000c7338038062000c738339818101604052810190620000379190620003d0565b8460008001908051906020019062000051929190620000e3565b5083600060010181905550826000600201908051906020019062000077929190620000e3565b50816000600301908051906020019062000093929190620000e3565b5080600060040160006101000a81548173ffffffffffffffffffffffffffffffffffffffff021916908373ffffffffffffffffffffffffffffffffffffffff16021790555050505050506200051a565b828054620000f190620004e4565b90600052602060002090601f01602090048101928262000115576000855562000161565b82601f106200013057805160ff191683800117855562000161565b8280016001018555821562000161579182015b828111156200016057825182559160200191906001019062000143565b5b50905062000170919062000174565b5090565b5b808211156200018f57600081600090555060010162000175565b5090565b6000604051905090565b600080fd5b600080fd5b600080fd5b600080fd5b6000601f19601f8301169050919050565b7f4e487b7100000000000000000000000000000000000000000000000000000000600052604160045260246000fd5b620001fc82620001b1565b810181811067ffffffffffffffff821117156200021e576200021d620001c2565b5b80604052505050565b60006200023362000193565b9050620002418282620001f1565b919050565b600067ffffffffffffffff821115620002645762000263620001c2565b5b6200026f82620001b1565b9050602081019050919050565b60005b838110156200029c5780820151818401526020810190506200027f565b83811115620002ac576000848401525b50505050565b6000620002c9620002c38462000246565b62000227565b905082815260208101848484011115620002e857620002e7620001ac565b5b620002f58482856200027c565b509392505050565b600082601f830112620003155762000314620001a7565b5b815162000327848260208601620002b2565b91505092915050565b6000819050919050565b620003458162000330565b81146200035157600080fd5b50565b60008151905062000365816200033a565b92915050565b600073ffffffffffffffffffffffffffffffffffffffff82169050919050565b600062000398826200036b565b9050919050565b620003aa816200038b565b8114620003b657600080fd5b50565b600081519050620003ca816200039f565b92915050565b600080600080600060a08688031215620003ef57620003ee6200019d565b5b600086015167ffffffffffffffff81111562000410576200040f620001a2565b5b6200041e88828901620002fd565b9550506020620004318882890162000354565b945050604086015167ffffffffffffffff811115620004555762000454620001a2565b5b6200046388828901620002fd565b935050606086015167ffffffffffffffff811115620004875762000486620001a2565b5b6200049588828901620002fd565b9250506080620004a888828901620003b9565b9150509295509295909350565b7f4e487b7100000000000000000000000000000000000000000000000000000000600052602260045260246000fd5b60006002820490506001821680620004fd57607f821691505b60208210811415620005145762000513620004b5565b5b50919050565b610749806200052a6000396000f3fe6080604052600436106100295760003560e01c806326c390921461002e578063ed88c68e14610059575b600080fd5b34801561003a57600080fd5b50610043610063565b604051610050919061058e565b60405180910390f35b61006161029d565b005b61006b6103b8565b60006040518060c0016040529081600082018054610088906105df565b80601f01602080910402602001604051908101604052809291908181526020018280546100b4906105df565b80156101015780601f106100d657610100808354040283529160200191610101565b820191906000526020600020905b8154815290600101906020018083116100e457829003601f168201915b5050505050815260200160018201548152602001600282018054610124906105df565b80601f0160208091040260200160405190810160405280929190818152602001828054610150906105df565b801561019d5780601f106101725761010080835404028352916020019161019d565b820191906000526020600020905b81548152906001019060200180831161018057829003601f168201915b505050505081526020016003820180546101b6906105df565b80601f01602080910402602001604051908101604052809291908181526020018280546101e2906105df565b801561022f5780601f106102045761010080835404028352916020019161022f565b820191906000526020600020905b81548152906001019060200180831161021257829003601f168201915b505050505081526020016004820160009054906101000a900473ffffffffffffffffffffffffffffffffffffffff1673ffffffffffffffffffffffffffffffffffffffff1673ffffffffffffffffffffffffffffffffffffffff168152602001600582015481525050905090565b600060050154600060010154116102e9576040517f08c379a00000000000000000000000000000000000000000000000000000000081526004016102e09061066e565b60405180910390fd5b600060040160009054906101000a900473ffffffffffffffffffffffffffffffffffffffff1673ffffffffffffffffffffffffffffffffffffffff166108fc349081150290604051600060405180830381858888f19350505050158015610354573d6000803e3d6000fd5b50346000600501600082825461036a91906106bd565b9250508190555042343373ffffffffffffffffffffffffffffffffffffffff167fe6add99d06d9ad7fc456e746aa162eed6211c5002ef2dacdd67b8d2016822fba60405160405180910390a4565b6040518060c0016040528060608152602001600081526020016060815260200160608152602001600073ffffffffffffffffffffffffffffffffffffffff168152602001600081525090565b600081519050919050565b600082825260208201905092915050565b60005b8381101561043e578082015181840152602081019050610423565b8381111561044d576000848401525b50505050565b6000601f19601f8301169050919050565b600061046f82610404565b610479818561040f565b9350610489818560208601610420565b61049281610453565b840191505092915050565b6000819050919050565b6104b08161049d565b82525050565b600073ffffffffffffffffffffffffffffffffffffffff82169050919050565b60006104e1826104b6565b9050919050565b6104f1816104d6565b82525050565b600060c08301600083015184820360008601526105148282610464565b915050602083015161052960208601826104a7565b50604083015184820360408601526105418282610464565b9150506060830151848203606086015261055b8282610464565b915050608083015161057060808601826104e8565b5060a083015161058360a08601826104a7565b508091505092915050565b600060208201905081810360008301526105a881846104f7565b905092915050565b7f4e487b7100000000000000000000000000000000000000000000000000000000600052602260045260246000fd5b600060028204905060018216806105f757607f821691505b6020821081141561060b5761060a6105b0565b5b50919050565b600082825260208201905092915050565b7f726571756972656420616d6f756e742066756c6c66696c6c6564000000000000600082015250565b6000610658601a83610611565b915061066382610622565b602082019050919050565b600060208201905081810360008301526106878161064b565b9050919050565b7f4e487b7100000000000000000000000000000000000000000000000000000000600052601160045260246000fd5b60006106c88261049d565b91506106d38361049d565b9250827fffffffffffffffffffffffffffffffffffffffffffffffffffffffffffffffff038211156107085761070761068e565b5b82820190509291505056fea26469706673582212201071e891ad77be291873d1e1c3a578e03f66c065d718d4c59c4cf0f97b1513d464736f6c634300080a0033a264697066735822122053b734fd08271dfd8006a821a3fd6df83ae1da21e69cb0ec644b4a34f8e476e164736f6c634300080a0033",
  "linkReferences": {},
  "deployedLinkReferences": {}
}